{
  "_format": "hh-sol-artifact-1",
  "contractName": "DocumentRegistry",
  "sourceName": "contracts/DocumentRegistry.sol",
  "abi": [
    {
      "inputs": [
        {
          "internalType": "address",
          "name": "_initialOwner",
          "type": "address"
        }
      ],
      "stateMutability": "nonpayable",
      "type": "constructor"
    },
    {
      "inputs": [
        {
          "internalType": "address",
          "name": "owner",
          "type": "address"
        }
      ],
      "name": "OwnableInvalidOwner",
      "type": "error"
    },
    {
      "inputs": [
        {
          "internalType": "address",
          "name": "account",
          "type": "address"
        }
      ],
      "name": "OwnableUnauthorizedAccount",
      "type": "error"
    },
    {
      "anonymous": false,
      "inputs": [
        {
          "indexed": true,
          "internalType": "bytes32",
          "name": "businessHash",
          "type": "bytes32"
        },
        {
          "indexed": false,
          "internalType": "string",
          "name": "claim",
          "type": "string"
        },
        {
          "indexed": false,
          "internalType": "enum DocumentRegistry.VerificationStatus",
          "name": "status",
          "type": "uint8"
        }
      ],
      "name": "AttestationAdded",
      "type": "event"
    },
    {
      "anonymous": false,
      "inputs": [
        {
          "indexed": true,
          "internalType": "bytes32",
          "name": "businessHash",
          "type": "bytes32"
        },
        {
          "indexed": false,
          "internalType": "string",
          "name": "docType",
          "type": "string"
        },
        {
          "indexed": false,
          "internalType": "bytes32",
          "name": "docHash",
          "type": "bytes32"
        }
      ],
      "name": "DocumentRegistered",
      "type": "event"
    },
    {
      "anonymous": false,
      "inputs": [
        {
          "indexed": true,
          "internalType": "address",
          "name": "previousOwner",
          "type": "address"
        },
        {
          "indexed": true,
          "internalType": "address",
          "name": "newOwner",
          "type": "address"
        }
      ],
      "name": "OwnershipTransferred",
      "type": "event"
    },
    {
      "anonymous": false,
      "inputs": [
        {
          "indexed": true,
          "internalType": "bytes32",
          "name": "businessHash",
          "type": "bytes32"
        },
        {
          "indexed": false,
          "internalType": "string",
          "name": "claim",
          "type": "string"
        },
        {
          "indexed": false,
          "internalType": "bool",
          "name": "isAbove",
          "type": "bool"
        }
      ],
      "name": "RangeProofAdded",
      "type": "event"
    },
    {
      "anonymous": false,
      "inputs": [
        {
          "indexed": true,
          "internalType": "address",
          "name": "verifier",
          "type": "address"
        }
      ],
      "name": "VerifierAdded",
      "type": "event"
    },
    {
      "anonymous": false,
      "inputs": [
        {
          "indexed": true,
          "internalType": "address",
          "name": "verifier",
          "type": "address"
        }
      ],
      "name": "VerifierRemoved",
      "type": "event"
    },
    {
      "inputs": [
        {
          "internalType": "string",
          "name": "_businessId",
          "type": "string"
        },
        {
          "internalType": "string",
          "name": "_claim",
          "type": "string"
        },
        {
          "internalType": "enum DocumentRegistry.VerificationStatus",
          "name": "_status",
          "type": "uint8"
        },
        {
          "internalType": "bytes32",
          "name": "_proofHash",
          "type": "bytes32"
        },
        {
          "internalType": "string",
          "name": "_method",
          "type": "string"
        }
      ],
      "name": "addAttestation",
      "outputs": [],
      "stateMutability": "nonpayable",
      "type": "function"
    },
    {
      "inputs": [
        {
          "internalType": "string",
          "name": "_businessId",
          "type": "string"
        },
        {
          "internalType": "string",
          "name": "_claim",
          "type": "string"
        },
        {
          "internalType": "uint256",
          "name": "_threshold",
          "type": "uint256"
        },
        {
          "internalType": "bool",
          "name": "_isAbove",
          "type": "bool"
        },
        {
          "internalType": "bytes32",
          "name": "_zkProofHash",
          "type": "bytes32"
        }
      ],
      "name": "addRangeProof",
      "outputs": [],
      "stateMutability": "nonpayable",
      "type": "function"
    },
    {
      "inputs": [
        {
          "internalType": "address",
          "name": "_verifier",
          "type": "address"
        }
      ],
      "name": "addVerifier",
      "outputs": [],
      "stateMutability": "nonpayable",
      "type": "function"
    },
    {
      "inputs": [
        {
          "internalType": "bytes32",
          "name": "",
          "type": "bytes32"
        },
        {
          "internalType": "string",
          "name": "",
          "type": "string"
        }
      ],
      "name": "documents",
      "outputs": [
        {
          "internalType": "bytes32",
          "name": "documentHash",
          "type": "bytes32"
        },
        {
          "internalType": "string",
          "name": "encryptedCid",
          "type": "string"
        },
        {
          "internalType": "uint256",
          "name": "registeredAt",
          "type": "uint256"
        },
        {
          "internalType": "bool",
          "name": "exists",
          "type": "bool"
        }
      ],
      "stateMutability": "view",
      "type": "function"
    },
    {
      "inputs": [
        {
          "internalType": "string",
          "name": "_businessId",
          "type": "string"
        }
      ],
      "name": "getAttestations",
      "outputs": [
        {
          "components": [
            {
              "internalType": "string",
              "name": "claim",
              "type": "string"
            },
            {
              "internalType": "enum DocumentRegistry.VerificationStatus",
              "name": "status",
              "type": "uint8"
            },
            {
              "internalType": "bytes32",
              "name": "proofHash",
              "type": "bytes32"
            },
            {
              "internalType": "uint256",
              "name": "timestamp",
              "type": "uint256"
            },
            {
              "internalType": "string",
              "name": "method",
              "type": "string"
            }
          ],
          "internalType": "struct DocumentRegistry.Attestation[]",
          "name": "",
          "type": "tuple[]"
        }
      ],
      "stateMutability": "view",
      "type": "function"
    },
    {
      "inputs": [
        {
          "internalType": "string",
          "name": "_businessId",
          "type": "string"
        },
        {
          "internalType": "string",
          "name": "_docType",
          "type": "string"
        }
      ],
      "name": "getDocument",
      "outputs": [
        {
          "internalType": "bytes32",
          "name": "docHash",
          "type": "bytes32"
        },
        {
          "internalType": "string",
          "name": "encryptedCid",
          "type": "string"
        },
        {
          "internalType": "uint256",
          "name": "registeredAt",
          "type": "uint256"
        },
        {
          "internalType": "bool",
          "name": "exists",
          "type": "bool"
        }
      ],
      "stateMutability": "view",
      "type": "function"
    },
    {
      "inputs": [
        {
          "internalType": "string",
          "name": "_businessId",
          "type": "string"
        }
      ],
      "name": "getRangeProofs",
      "outputs": [
        {
          "components": [
            {
              "internalType": "string",
              "name": "claim",
              "type": "string"
            },
            {
              "internalType": "uint256",
              "name": "threshold",
              "type": "uint256"
            },
            {
              "internalType": "bool",
              "name": "isAbove",
              "type": "bool"
            },
            {
              "internalType": "bytes32",
              "name": "zkProofHash",
              "type": "bytes32"
            },
            {
              "internalType": "uint256",
              "name": "verifiedAt",
              "type": "uint256"
            }
          ],
          "internalType": "struct DocumentRegistry.RangeProof[]",
          "name": "",
          "type": "tuple[]"
        }
      ],
      "stateMutability": "view",
      "type": "function"
    },
    {
      "inputs": [
        {
          "internalType": "string",
          "name": "_businessId",
          "type": "string"
        }
      ],
      "name": "getVerificationSummary",
      "outputs": [
        {
          "internalType": "uint256",
          "name": "total",
          "type": "uint256"
        },
        {
          "internalType": "uint256",
          "name": "verified",
          "type": "uint256"
        },
        {
          "internalType": "uint256",
          "name": "rangeProofCount",
          "type": "uint256"
        }
      ],
      "stateMutability": "view",
      "type": "function"
    },
    {
      "inputs": [
        {
          "internalType": "string",
          "name": "_businessId",
          "type": "string"
        }
      ],
      "name": "hashBusinessId",
      "outputs": [
        {
          "internalType": "bytes32",
          "name": "",
          "type": "bytes32"
        }
      ],
      "stateMutability": "pure",
      "type": "function"
    },
    {
      "inputs": [],
      "name": "owner",
      "outputs": [
        {
          "internalType": "address",
          "name": "",
          "type": "address"
        }
      ],
      "stateMutability": "view",
      "type": "function"
    },
    {
      "inputs": [
        {
          "internalType": "string",
          "name": "_businessId",
          "type": "string"
        },
        {
          "internalType": "string",
          "name": "_docType",
          "type": "string"
        },
        {
          "internalType": "bytes32",
          "name": "_docHash",
          "type": "bytes32"
        },
        {
          "internalType": "string",
          "name": "_encryptedCid",
          "type": "string"
        }
      ],
      "name": "registerDocument",
      "outputs": [],
      "stateMutability": "nonpayable",
      "type": "function"
    },
    {
      "inputs": [
        {
          "internalType": "address",
          "name": "_verifier",
          "type": "address"
        }
      ],
      "name": "removeVerifier",
      "outputs": [],
      "stateMutability": "nonpayable",
      "type": "function"
    },
    {
      "inputs": [],
      "name": "renounceOwnership",
      "outputs": [],
      "stateMutability": "nonpayable",
      "type": "function"
    },
    {
      "inputs": [
        {
          "internalType": "bytes32",
          "name": "",
          "type": "bytes32"
        }
      ],
      "name": "totalClaimCount",
      "outputs": [
        {
          "internalType": "uint256",
          "name": "",
          "type": "uint256"
        }
      ],
      "stateMutability": "view",
      "type": "function"
    },
    {
      "inputs": [
        {
          "internalType": "address",
          "name": "newOwner",
          "type": "address"
        }
      ],
      "name": "transferOwnership",
      "outputs": [],
      "stateMutability": "nonpayable",
      "type": "function"
    },
    {
      "inputs": [
        {
          "internalType": "address",
          "name": "",
          "type": "address"
        }
      ],
      "name": "trustedVerifiers",
      "outputs": [
        {
          "internalType": "bool",
          "name": "",
          "type": "bool"
        }
      ],
      "stateMutability": "view",
      "type": "function"
    },
    {
      "inputs": [
        {
          "internalType": "bytes32",
          "name": "",
          "type": "bytes32"
        }
      ],
      "name": "verifiedClaimCount",
      "outputs": [
        {
          "internalType": "uint256",
          "name": "",
          "type": "uint256"
        }
      ],
      "stateMutability": "view",
      "type": "function"
    },
    {
      "inputs": [
        {
          "internalType": "string",
          "name": "_businessId",
          "type": "string"
        },
        {
          "internalType": "string",
          "name": "_docType",
          "type": "string"
        },
        {
          "internalType": "bytes32",
          "name": "_providedHash",
          "type": "bytes32"
        }
      ],
      "name": "verifyDocumentIntegrity",
      "outputs": [
        {
          "internalType": "bool",
          "name": "",
          "type": "bool"
        }
      ],
      "stateMutability": "view",
      "type": "function"
    }
  ],
  "bytecode": "0x608060405234801561001057600080fd5b50604051620019783803806200197883398101604081905261003191610109565b806001600160a01b03811661006057604051631e4fbdf760e01b81526000600482015260240160405180910390fd5b610069816100b9565b506001600160a01b038116600081815260066020526040808220805460ff19166001179055517f6d05492139c5ea989514a5d2150c028041e5c087e2a39967f67dc7d2655adb819190a250610139565b600080546001600160a01b038381166001600160a01b0319831681178455604051919092169283917f8be0079c531659141344cd1fd0a4f28419497f9722a3daafe3b4186f6b6457e09190a35050565b60006020828403121561011b57600080fd5b81516001600160a01b038116811461013257600080fd5b9392505050565b61182f80620001496000396000f3fe608060405234801561001057600080fd5b50600436106101165760003560e01c8063ca2dfd0a116100a2578063ea2c3cde11610071578063ea2c3cde1461027b578063ec7321ac1461029b578063ed1e8596146102ae578063f2fde38b146102c1578063ff87359b146102d457600080fd5b8063ca2dfd0a1461022f578063ccbee45c14610242578063de420bc414610255578063de4295401461026857600080fd5b806353ec8711116100e957806353ec8711146101b45780636f75f2dd146101d7578063715018a6146101f75780638da5cb5b146102015780639000b3d61461021c57600080fd5b80630675de3f1461011b57806312248c491461014e57806326319833146101615780632cfb1cef14610194575b600080fd5b61013b610129366004610fd2565b60056020526000908152604090205481565b6040519081526020015b60405180910390f35b61013b61015c36600461108e565b610302565b61018461016f3660046110cb565b60066020526000908152604090205460ff1681565b6040519015158152602001610145565b6101a76101a236600461108e565b610332565b6040516101459190611144565b6101c76101c23660046111db565b610477565b604051610145949392919061123f565b6101ea6101e536600461108e565b61059f565b60405161014591906112a8565b6101ff61077e565b005b6000546040516001600160a01b039091168152602001610145565b6101ff61022a3660046110cb565b610792565b6101ff61023d3660046110cb565b61084b565b6101c7610250366004611349565b61089c565b6101ff610263366004611386565b61096b565b6101ff610276366004611413565b610a85565b61013b610289366004610fd2565b60046020526000908152604090205481565b6101846102a93660046114a5565b610c26565b6101ff6102bc366004611512565b610d47565b6101ff6102cf3660046110cb565b610ed8565b6102e76102e236600461108e565b610f16565b60408051938452602084019290925290820152606001610145565b60008160405160200161031591906115bd565b604051602081830303815290604052805190602001209050919050565b6060600061033f83610302565b905060036000828152602001908152602001600020805480602002602001604051908101604052809291908181526020016000905b8282101561046b57838290600052602060002090600502016040518060a00160405290816000820180546103a7906115d9565b80601f01602080910402602001604051908101604052809291908181526020018280546103d3906115d9565b80156104205780601f106103f557610100808354040283529160200191610420565b820191906000526020600020905b81548152906001019060200180831161040357829003601f168201915b5050509183525050600182810154602080840191909152600284015460ff16151560408401526003840154606084015260049093015460809092019190915291835292019101610374565b50505050915050919050565b60006060600080600061048987610302565b600081815260016020526040808220905192935090916104aa9089906115bd565b9081526020016040518091039020604051806080016040529081600082015481526020016001820180546104dd906115d9565b80601f0160208091040260200160405190810160405280929190818152602001828054610509906115d9565b80156105565780601f1061052b57610100808354040283529160200191610556565b820191906000526020600020905b81548152906001019060200180831161053957829003601f168201915b5050509183525050600282015460208083019190915260039092015460ff16151560409182015282519183015190830151606090930151919b909a509198509650945050505050565b606060006105ac83610302565b905060026000828152602001908152602001600020805480602002602001604051908101604052809291908181526020016000905b8282101561046b57838290600052602060002090600502016040518060a0016040529081600082018054610614906115d9565b80601f0160208091040260200160405190810160405280929190818152602001828054610640906115d9565b801561068d5780601f106106625761010080835404028352916020019161068d565b820191906000526020600020905b81548152906001019060200180831161067057829003601f168201915b5050509183525050600182015460209091019060ff1660028111156106b4576106b4611270565b60028111156106c5576106c5611270565b815260200160028201548152602001600382015481526020016004820180546106ed906115d9565b80601f0160208091040260200160405190810160405280929190818152602001828054610719906115d9565b80156107665780601f1061073b57610100808354040283529160200191610766565b820191906000526020600020905b81548152906001019060200180831161074957829003601f168201915b505050505081525050815260200190600101906105e1565b610786610f55565b6107906000610f82565b565b61079a610f55565b6001600160a01b0381166107ff5760405162461bcd60e51b815260206004820152602160248201527f446f63756d656e7452656769737472793a20696e76616c6964206164647265736044820152607360f81b60648201526084015b60405180910390fd5b6001600160a01b038116600081815260066020526040808220805460ff19166001179055517f6d05492139c5ea989514a5d2150c028041e5c087e2a39967f67dc7d2655adb819190a250565b610853610f55565b6001600160a01b038116600081815260066020526040808220805460ff19169055517f44a3cd4eb5cc5748f6169df057b1cb2ae4c383e87cd94663c430e095d4cba4249190a250565b6001602081815260009384526040909320825180840185018051928152908501939094019290922091909252805491810180546108d8906115d9565b80601f0160208091040260200160405190810160405280929190818152602001828054610904906115d9565b80156109515780601f1061092657610100808354040283529160200191610951565b820191906000526020600020905b81548152906001019060200180831161093457829003601f168201915b50505050600283015460039093015491929160ff16905084565b3360009081526006602052604090205460ff1661099a5760405162461bcd60e51b81526004016107f690611613565b60006109a586610302565b6000818152600360209081526040808320815160a0810183528a81528084018a90528815159281019290925260608201879052426080830152805460018101825590845291909220825193945091926005909102909101908190610a0990826116aa565b506020820151600182015560408083015160028301805460ff1916911515919091179055606083015160038301556080909201516004909101555181907f952fd8d60c1a234a0f8f40866619bc3e800c021201713c3ead7e2ff276f321e790610a75908890879061176a565b60405180910390a2505050505050565b3360009081526006602052604090205460ff16610ab45760405162461bcd60e51b81526004016107f690611613565b6000610abf85610302565b90506001600082815260200190815260200160002084604051610ae291906115bd565b9081526040519081900360200190206003015460ff1615610b5b5760405162461bcd60e51b815260206004820152602d60248201527f446f63756d656e7452656769737472793a20646f63756d656e7420616c72656160448201526c191e481c9959da5cdd195c9959609a1b60648201526084016107f6565b6040805160808101825284815260208082018590524282840152600160608301819052600085815291528290209151909190610b989087906115bd565b9081526040516020918190038201902082518155908201516001820190610bbf90826116aa565b5060408281015160028301556060909201516003909101805460ff19169115159190911790555181907fa459dcd35dc14c86964f782a4ee7040fae9c2b76b1d762067c88989c2d9ee8e290610c17908790879061178e565b60405180910390a25050505050565b600080610c3285610302565b60008181526001602052604080822090519293509091610c539087906115bd565b908152602001604051809103902060405180608001604052908160008201548152602001600182018054610c86906115d9565b80601f0160208091040260200160405190810160405280929190818152602001828054610cb2906115d9565b8015610cff5780601f10610cd457610100808354040283529160200191610cff565b820191906000526020600020905b815481529060010190602001808311610ce257829003601f168201915b50505091835250506002820154602082015260039091015460ff1615156040909101526060810151909150610d3957600092505050610d40565b5183149150505b9392505050565b3360009081526006602052604090205460ff16610d765760405162461bcd60e51b81526004016107f690611613565b6000610d8186610302565b9050600260008281526020019081526020016000206040518060a00160405280878152602001866002811115610db957610db9611270565b8152602080820187905242604083015260609091018590528254600181018455600093845292208151919260050201908190610df590826116aa565b50602082015160018083018054909160ff1990911690836002811115610e1d57610e1d611270565b0217905550604082015160028201556060820151600382015560808201516004820190610e4a90826116aa565b5050506000818152600560205260408120805491610e67836117b0565b9091555060019050846002811115610e8157610e81611270565b03610ea6576000818152600460205260408120805491610ea0836117b0565b91905055505b807fb7d3d169dd9f5faf30694792703bba15b30a8dd307ad1129a82683e3c527e1f38686604051610a759291906117d7565b610ee0610f55565b6001600160a01b038116610f0a57604051631e4fbdf760e01b8152600060048201526024016107f6565b610f1381610f82565b50565b600080600080610f2585610302565b60009081526005602090815260408083205460048352818420546003909352922054919790965090945092505050565b6000546001600160a01b031633146107905760405163118cdaa760e01b81523360048201526024016107f6565b600080546001600160a01b038381166001600160a01b0319831681178455604051919092169283917f8be0079c531659141344cd1fd0a4f28419497f9722a3daafe3b4186f6b6457e09190a35050565b600060208284031215610fe457600080fd5b5035919050565b634e487b7160e01b600052604160045260246000fd5b600082601f83011261101257600080fd5b813567ffffffffffffffff8082111561102d5761102d610feb565b604051601f8301601f19908116603f0116810190828211818310171561105557611055610feb565b8160405283815286602085880101111561106e57600080fd5b836020870160208301376000602085830101528094505050505092915050565b6000602082840312156110a057600080fd5b813567ffffffffffffffff8111156110b757600080fd5b6110c384828501611001565b949350505050565b6000602082840312156110dd57600080fd5b81356001600160a01b0381168114610d4057600080fd5b60005b8381101561110f5781810151838201526020016110f7565b50506000910152565b600081518084526111308160208601602086016110f4565b601f01601f19169290920160200192915050565b60006020808301818452808551808352604092508286019150828160051b87010184880160005b838110156111cd57603f19898403018552815160a0815181865261119182870182611118565b838b0151878c01528984015115158a8801526060808501519088015260809384015193909601929092525050938601939086019060010161116b565b509098975050505050505050565b600080604083850312156111ee57600080fd5b823567ffffffffffffffff8082111561120657600080fd5b61121286838701611001565b9350602085013591508082111561122857600080fd5b5061123585828601611001565b9150509250929050565b8481526080602082015260006112586080830186611118565b60408301949094525090151560609091015292915050565b634e487b7160e01b600052602160045260246000fd5b600381106112a457634e487b7160e01b600052602160045260246000fd5b9052565b60006020808301818452808551808352604092508286019150828160051b87010184880160005b838110156111cd57603f19898403018552815160a081518186526112f582870182611118565b915050888201516113088a870182611286565b50818801518589015260608083015190860152608091820151858203928601929092526113358183611118565b9689019694505050908601906001016112cf565b6000806040838503121561135c57600080fd5b82359150602083013567ffffffffffffffff81111561137a57600080fd5b61123585828601611001565b600080600080600060a0868803121561139e57600080fd5b853567ffffffffffffffff808211156113b657600080fd5b6113c289838a01611001565b965060208801359150808211156113d857600080fd5b506113e588828901611001565b945050604086013592506060860135801515811461140257600080fd5b949793965091946080013592915050565b6000806000806080858703121561142957600080fd5b843567ffffffffffffffff8082111561144157600080fd5b61144d88838901611001565b9550602087013591508082111561146357600080fd5b61146f88838901611001565b945060408701359350606087013591508082111561148c57600080fd5b5061149987828801611001565b91505092959194509250565b6000806000606084860312156114ba57600080fd5b833567ffffffffffffffff808211156114d257600080fd5b6114de87838801611001565b945060208601359150808211156114f457600080fd5b5061150186828701611001565b925050604084013590509250925092565b600080600080600060a0868803121561152a57600080fd5b853567ffffffffffffffff8082111561154257600080fd5b61154e89838a01611001565b9650602088013591508082111561156457600080fd5b61157089838a01611001565b9550604088013591506003821061158657600080fd5b90935060608701359250608087013590808211156115a357600080fd5b506115b088828901611001565b9150509295509295909350565b600082516115cf8184602087016110f4565b9190910192915050565b600181811c908216806115ed57607f821691505b60208210810361160d57634e487b7160e01b600052602260045260246000fd5b50919050565b60208082526028908201527f446f63756d656e7452656769737472793a206e6f7420612074727573746564206040820152673b32b934b334b2b960c11b606082015260800190565b601f8211156116a557600081815260208120601f850160051c810160208610156116825750805b601f850160051c820191505b818110156116a15782815560010161168e565b5050505b505050565b815167ffffffffffffffff8111156116c4576116c4610feb565b6116d8816116d284546115d9565b8461165b565b602080601f83116001811461170d57600084156116f55750858301515b600019600386901b1c1916600185901b1785556116a1565b600085815260208120601f198616915b8281101561173c5788860151825594840194600190910190840161171d565b508582101561175a5787850151600019600388901b60f8161c191681555b5050505050600190811b01905550565b60408152600061177d6040830185611118565b905082151560208301529392505050565b6040815260006117a16040830185611118565b90508260208301529392505050565b6000600182016117d057634e487b7160e01b600052601160045260246000fd5b5060010190565b6040815260006117ea6040830185611118565b9050610d40602083018461128656fea2646970667358221220a0b990b5d18d661b940a3404251a4757ffd8fa2df3e363865f434ccd9db3d9f764736f6c63430008140033",
  "linkReferences": {},
  "deployedLinkReferences": {}
}