{
  "_format": "hh-sol-artifact-1",
  "contractName": "FinoGovernance",
  "sourceName": "contracts/FinoGovernance.sol",
  "abi": [
    {
      "inputs": [
        {
          "internalType": "address",
          "name": "_invxToken",
          "type": "address"
        },
        {
          "internalType": "address",
          "name": "_initialOwner",
          "type": "address"
        }
      ],
      "stateMutability": "nonpayable",
      "type": "constructor"
    },
    {
      "inputs": [
        {
          "internalType": "address",
          "name": "owner",
          "type": "address"
        }
      ],
      "name": "OwnableInvalidOwner",
      "type": "error"
    },
    {
      "inputs": [
        {
          "internalType": "address",
          "name": "account",
          "type": "address"
        }
      ],
      "name": "OwnableUnauthorizedAccount",
      "type": "error"
    },
    {
      "anonymous": false,
      "inputs": [
        {
          "indexed": true,
          "internalType": "address",
          "name": "previousOwner",
          "type": "address"
        },
        {
          "indexed": true,
          "internalType": "address",
          "name": "newOwner",
          "type": "address"
        }
      ],
      "name": "OwnershipTransferred",
      "type": "event"
    },
    {
      "anonymous": false,
      "inputs": [
        {
          "indexed": true,
          "internalType": "uint256",
          "name": "id",
          "type": "uint256"
        },
        {
          "indexed": false,
          "internalType": "enum FinoGovernance.ProposalType",
          "name": "proposalType",
          "type": "uint8"
        },
        {
          "indexed": false,
          "internalType": "bytes32",
          "name": "businessHash",
          "type": "bytes32"
        },
        {
          "indexed": false,
          "internalType": "address",
          "name": "proposer",
          "type": "address"
        }
      ],
      "name": "ProposalCreated",
      "type": "event"
    },
    {
      "anonymous": false,
      "inputs": [
        {
          "indexed": true,
          "internalType": "address",
          "name": "creator",
          "type": "address"
        },
        {
          "indexed": false,
          "internalType": "bool",
          "name": "allowed",
          "type": "bool"
        }
      ],
      "name": "ProposalCreatorUpdated",
      "type": "event"
    },
    {
      "anonymous": false,
      "inputs": [
        {
          "indexed": true,
          "internalType": "uint256",
          "name": "id",
          "type": "uint256"
        }
      ],
      "name": "ProposalExecuted",
      "type": "event"
    },
    {
      "anonymous": false,
      "inputs": [
        {
          "indexed": true,
          "internalType": "uint256",
          "name": "id",
          "type": "uint256"
        },
        {
          "indexed": false,
          "internalType": "enum FinoGovernance.ProposalStatus",
          "name": "status",
          "type": "uint8"
        }
      ],
      "name": "ProposalFinalized",
      "type": "event"
    },
    {
      "anonymous": false,
      "inputs": [
        {
          "indexed": true,
          "internalType": "uint256",
          "name": "proposalId",
          "type": "uint256"
        },
        {
          "indexed": true,
          "internalType": "address",
          "name": "voter",
          "type": "address"
        },
        {
          "indexed": false,
          "internalType": "bool",
          "name": "support",
          "type": "bool"
        },
        {
          "indexed": false,
          "internalType": "uint256",
          "name": "weight",
          "type": "uint256"
        }
      ],
      "name": "Voted",
      "type": "event"
    },
    {
      "inputs": [],
      "name": "APPROVAL_PERCENT",
      "outputs": [
        {
          "internalType": "uint256",
          "name": "",
          "type": "uint256"
        }
      ],
      "stateMutability": "view",
      "type": "function"
    },
    {
      "inputs": [],
      "name": "EMERGENCY_APPROVAL",
      "outputs": [
        {
          "internalType": "uint256",
          "name": "",
          "type": "uint256"
        }
      ],
      "stateMutability": "view",
      "type": "function"
    },
    {
      "inputs": [],
      "name": "EMERGENCY_MIN_VOTERS",
      "outputs": [
        {
          "internalType": "uint256",
          "name": "",
          "type": "uint256"
        }
      ],
      "stateMutability": "view",
      "type": "function"
    },
    {
      "inputs": [],
      "name": "MAX_VOTE_WEIGHT_PERCENT",
      "outputs": [
        {
          "internalType": "uint256",
          "name": "",
          "type": "uint256"
        }
      ],
      "stateMutability": "view",
      "type": "function"
    },
    {
      "inputs": [],
      "name": "MIN_INVX_TO_VOTE",
      "outputs": [
        {
          "internalType": "uint256",
          "name": "",
          "type": "uint256"
        }
      ],
      "stateMutability": "view",
      "type": "function"
    },
    {
      "inputs": [],
      "name": "MIN_VOTERS",
      "outputs": [
        {
          "internalType": "uint256",
          "name": "",
          "type": "uint256"
        }
      ],
      "stateMutability": "view",
      "type": "function"
    },
    {
      "inputs": [],
      "name": "VOTING_DURATION",
      "outputs": [
        {
          "internalType": "uint256",
          "name": "",
          "type": "uint256"
        }
      ],
      "stateMutability": "view",
      "type": "function"
    },
    {
      "inputs": [
        {
          "internalType": "enum FinoGovernance.ProposalType",
          "name": "_type",
          "type": "uint8"
        },
        {
          "internalType": "string",
          "name": "_businessId",
          "type": "string"
        },
        {
          "internalType": "string",
          "name": "_metadataIpfs",
          "type": "string"
        }
      ],
      "name": "createProposal",
      "outputs": [
        {
          "internalType": "uint256",
          "name": "",
          "type": "uint256"
        }
      ],
      "stateMutability": "nonpayable",
      "type": "function"
    },
    {
      "inputs": [
        {
          "internalType": "uint256",
          "name": "_proposalId",
          "type": "uint256"
        }
      ],
      "name": "finalizeProposal",
      "outputs": [],
      "stateMutability": "nonpayable",
      "type": "function"
    },
    {
      "inputs": [
        {
          "internalType": "uint256",
          "name": "_proposalId",
          "type": "uint256"
        }
      ],
      "name": "getProposal",
      "outputs": [
        {
          "components": [
            {
              "internalType": "uint256",
              "name": "id",
              "type": "uint256"
            },
            {
              "internalType": "enum FinoGovernance.ProposalType",
              "name": "proposalType",
              "type": "uint8"
            },
            {
              "internalType": "bytes32",
              "name": "businessHash",
              "type": "bytes32"
            },
            {
              "internalType": "string",
              "name": "metadataIpfs",
              "type": "string"
            },
            {
              "internalType": "address",
              "name": "proposer",
              "type": "address"
            },
            {
              "internalType": "uint256",
              "name": "startTime",
              "type": "uint256"
            },
            {
              "internalType": "uint256",
              "name": "endTime",
              "type": "uint256"
            },
            {
              "internalType": "uint256",
              "name": "upvoteWeight",
              "type": "uint256"
            },
            {
              "internalType": "uint256",
              "name": "downvoteWeight",
              "type": "uint256"
            },
            {
              "internalType": "uint256",
              "name": "voterCount",
              "type": "uint256"
            },
            {
              "internalType": "enum FinoGovernance.ProposalStatus",
              "name": "status",
              "type": "uint8"
            },
            {
              "internalType": "bool",
              "name": "executed",
              "type": "bool"
            }
          ],
          "internalType": "struct FinoGovernance.Proposal",
          "name": "",
          "type": "tuple"
        }
      ],
      "stateMutability": "view",
      "type": "function"
    },
    {
      "inputs": [
        {
          "internalType": "uint256",
          "name": "_proposalId",
          "type": "uint256"
        }
      ],
      "name": "getVoteResult",
      "outputs": [
        {
          "internalType": "uint256",
          "name": "upvotes",
          "type": "uint256"
        },
        {
          "internalType": "uint256",
          "name": "downvotes",
          "type": "uint256"
        },
        {
          "internalType": "uint256",
          "name": "voters",
          "type": "uint256"
        },
        {
          "internalType": "enum FinoGovernance.ProposalStatus",
          "name": "status",
          "type": "uint8"
        }
      ],
      "stateMutability": "view",
      "type": "function"
    },
    {
      "inputs": [
        {
          "internalType": "uint256",
          "name": "_proposalId",
          "type": "uint256"
        }
      ],
      "name": "getVoters",
      "outputs": [
        {
          "internalType": "address[]",
          "name": "",
          "type": "address[]"
        }
      ],
      "stateMutability": "view",
      "type": "function"
    },
    {
      "inputs": [
        {
          "internalType": "address",
          "name": "_voter",
          "type": "address"
        }
      ],
      "name": "getVotingPower",
      "outputs": [
        {
          "internalType": "uint256",
          "name": "",
          "type": "uint256"
        }
      ],
      "stateMutability": "view",
      "type": "function"
    },
    {
      "inputs": [
        {
          "internalType": "uint256",
          "name": "_proposalId",
          "type": "uint256"
        },
        {
          "internalType": "address",
          "name": "_voter",
          "type": "address"
        }
      ],
      "name": "hasUserVoted",
      "outputs": [
        {
          "internalType": "bool",
          "name": "",
          "type": "bool"
        }
      ],
      "stateMutability": "view",
      "type": "function"
    },
    {
      "inputs": [
        {
          "internalType": "uint256",
          "name": "",
          "type": "uint256"
        },
        {
          "internalType": "address",
          "name": "",
          "type": "address"
        }
      ],
      "name": "hasVoted",
      "outputs": [
        {
          "internalType": "bool",
          "name": "",
          "type": "bool"
        }
      ],
      "stateMutability": "view",
      "type": "function"
    },
    {
      "inputs": [],
      "name": "invxToken",
      "outputs": [
        {
          "internalType": "contract IERC20",
          "name": "",
          "type": "address"
        }
      ],
      "stateMutability": "view",
      "type": "function"
    },
    {
      "inputs": [
        {
          "internalType": "uint256",
          "name": "_proposalId",
          "type": "uint256"
        }
      ],
      "name": "markExecuted",
      "outputs": [],
      "stateMutability": "nonpayable",
      "type": "function"
    },
    {
      "inputs": [],
      "name": "owner",
      "outputs": [
        {
          "internalType": "address",
          "name": "",
          "type": "address"
        }
      ],
      "stateMutability": "view",
      "type": "function"
    },
    {
      "inputs": [],
      "name": "proposalCount",
      "outputs": [
        {
          "internalType": "uint256",
          "name": "",
          "type": "uint256"
        }
      ],
      "stateMutability": "view",
      "type": "function"
    },
    {
      "inputs": [
        {
          "internalType": "address",
          "name": "",
          "type": "address"
        }
      ],
      "name": "proposalCreators",
      "outputs": [
        {
          "internalType": "bool",
          "name": "",
          "type": "bool"
        }
      ],
      "stateMutability": "view",
      "type": "function"
    },
    {
      "inputs": [
        {
          "internalType": "uint256",
          "name": "",
          "type": "uint256"
        }
      ],
      "name": "proposals",
      "outputs": [
        {
          "internalType": "uint256",
          "name": "id",
          "type": "uint256"
        },
        {
          "internalType": "enum FinoGovernance.ProposalType",
          "name": "proposalType",
          "type": "uint8"
        },
        {
          "internalType": "bytes32",
          "name": "businessHash",
          "type": "bytes32"
        },
        {
          "internalType": "string",
          "name": "metadataIpfs",
          "type": "string"
        },
        {
          "internalType": "address",
          "name": "proposer",
          "type": "address"
        },
        {
          "internalType": "uint256",
          "name": "startTime",
          "type": "uint256"
        },
        {
          "internalType": "uint256",
          "name": "endTime",
          "type": "uint256"
        },
        {
          "internalType": "uint256",
          "name": "upvoteWeight",
          "type": "uint256"
        },
        {
          "internalType": "uint256",
          "name": "downvoteWeight",
          "type": "uint256"
        },
        {
          "internalType": "uint256",
          "name": "voterCount",
          "type": "uint256"
        },
        {
          "internalType": "enum FinoGovernance.ProposalStatus",
          "name": "status",
          "type": "uint8"
        },
        {
          "internalType": "bool",
          "name": "executed",
          "type": "bool"
        }
      ],
      "stateMutability": "view",
      "type": "function"
    },
    {
      "inputs": [],
      "name": "renounceOwnership",
      "outputs": [],
      "stateMutability": "nonpayable",
      "type": "function"
    },
    {
      "inputs": [
        {
          "internalType": "address",
          "name": "_creator",
          "type": "address"
        },
        {
          "internalType": "bool",
          "name": "_allowed",
          "type": "bool"
        }
      ],
      "name": "setProposalCreator",
      "outputs": [],
      "stateMutability": "nonpayable",
      "type": "function"
    },
    {
      "inputs": [
        {
          "internalType": "address",
          "name": "newOwner",
          "type": "address"
        }
      ],
      "name": "transferOwnership",
      "outputs": [],
      "stateMutability": "nonpayable",
      "type": "function"
    },
    {
      "inputs": [
        {
          "internalType": "uint256",
          "name": "_proposalId",
          "type": "uint256"
        },
        {
          "internalType": "bool",
          "name": "_support",
          "type": "bool"
        }
      ],
      "name": "vote",
      "outputs": [],
      "stateMutability": "nonpayable",
      "type": "function"
    },
    {
      "inputs": [
        {
          "internalType": "uint256",
          "name": "",
          "type": "uint256"
        },
        {
          "internalType": "address",
          "name": "",
          "type": "address"
        }
      ],
      "name": "voteDirection",
      "outputs": [
        {
          "internalType": "bool",
          "name": "",
          "type": "bool"
        }
      ],
      "stateMutability": "view",
      "type": "function"
    }
  ],
  "bytecode": "0x60806040523480156200001157600080fd5b5060405162001dcc38038062001dcc833981016040819052620000349162000173565b806001600160a01b0381166200006557604051631e4fbdf760e01b8152600060048201526024015b60405180910390fd5b620000708162000106565b506001600160a01b038216620000c95760405162461bcd60e51b815260206004820152601960248201527f476f7665726e616e63653a20696e76616c696420746f6b656e0000000000000060448201526064016200005c565b600180546001600160a01b0319166001600160a01b0393841617815591166000908152600760205260409020805460ff19169091179055620001ab565b600080546001600160a01b038381166001600160a01b0319831681178455604051919092169283917f8be0079c531659141344cd1fd0a4f28419497f9722a3daafe3b4186f6b6457e09190a35050565b80516001600160a01b03811681146200016e57600080fd5b919050565b600080604083850312156200018757600080fd5b620001928362000156565b9150620001a26020840162000156565b90509250929050565b611c1180620001bb6000396000f3fe608060405234801561001057600080fd5b506004361061018e5760003560e01c8063bfa0fc93116100de578063da35c66411610097578063e3db418511610071578063e3db4185146103b8578063e6fd9d10146103c0578063f2fde38b146103c8578063f6405119146103db57600080fd5b8063da35c66414610379578063dc296ae114610382578063dd6d7b6e1461039557600080fd5b8063bfa0fc9314610304578063c0401eb514610327578063c7f758a814610336578063c9d27afe14610356578063d1791ae014610369578063d692f73f1461037157600080fd5b80635fae44891161014b5780638da5cb5b116101255780638da5cb5b146102a95780639c25e730146102ba578063a438d208146102e8578063bb4d4436146102f157600080fd5b80635fae448914610279578063715018a61461028157806386b646f21461028957600080fd5b8063013cf08b1461019357806309553424146101c757806312146378146101e857806335f318c81461021357806343859632146102285780635652077c14610266575b600080fd5b6101a66101a13660046114cb565b6103ee565b6040516101be9c9b9a99989796959493929190611575565b60405180910390f35b6101da6101d53660046116a2565b6104e8565b6040519081526020016101be565b6001546101fb906001600160a01b031681565b6040516001600160a01b0390911681526020016101be565b610226610221366004611748565b610741565b005b61025661023636600461177b565b600460209081526000928352604080842090915290825290205460ff1681565b60405190151581526020016101be565b6102266102743660046114cb565b6107a8565b6101da603c81565b6102266109c6565b61029c6102973660046114cb565b6109da565b6040516101be919061179e565b6000546001600160a01b03166101fb565b6102566102c836600461177b565b600560209081526000928352604080842090915290825290205460ff1681565b6101da61038481565b6101da6102ff3660046117eb565b610a46565b6103176103123660046114cb565b610aca565b6040516101be9493929190611806565b6101da670de0b6b3a764000081565b6103496103443660046114cb565b610c88565b6040516101be9190611833565b6102266103643660046118fd565b610e6c565b6101da600381565b6101da605081565b6101da60025481565b61025661039036600461177b565b6111ee565b6102566103a33660046117eb565b60076020526000908152604090205460ff1681565b6101da600581565b6101da601481565b6102266103d63660046117eb565b61121b565b6102266103e93660046114cb565b611259565b60036020819052600091825260409091208054600182015460028301549383018054929460ff90921693919261042390611920565b80601f016020809104026020016040519081016040528092919081815260200182805461044f90611920565b801561049c5780601f106104715761010080835404028352916020019161049c565b820191906000526020600020905b81548152906001019060200180831161047f57829003601f168201915b50505050600483015460058401546006850154600786015460088701546009880154600a9098015496976001600160a01b03909516969395509193909260ff808216916101009004168c565b3360009081526007602052604081205460ff166105205760405162461bcd60e51b81526004016105179061195a565b60405180910390fd5b60028054906000610530836119b2565b919050555060008360405160200161054891906119cb565b6040516020818303038152906040528051906020012090506040518061018001604052806002548152602001866003811115610586576105866114e4565b8152602001828152602001848152602001336001600160a01b03168152602001428152602001610384426105ba91906119e7565b8152602001600081526020016000815260200160008152602001600060038111156105e7576105e76114e4565b8152600060209182018190526002548152600380835260409091208351815591830151600183810180549293909260ff19169190849081111561062c5761062c6114e4565b0217905550604082015160028201556060820151600382019061064f9082611a49565b5060808201516004820180546001600160a01b0319166001600160a01b0390921691909117905560a0820151600582015560c0820151600682015560e0820151600782015561010082015160088201556101208201516009820155610140820151600a8201805460ff191660018360038111156106ce576106ce6114e4565b02179055506101609190910151600a90910180549115156101000261ff00199092169190911790556002546040517feffcf4fbfbb6453a86f16ae275211b3d9dd3701cd29a78bfec278499fb38db449061072d90889085903390611b09565b60405180910390a250506002549392505050565b610749611391565b6001600160a01b038216600081815260076020908152604091829020805460ff191685151590811790915591519182527f47488ef456af1014bb8725d0d9c252a327405018fa6a3a36ba2e87d906476535910160405180910390a25050565b600081815260036020526040812080549091036107d75760405162461bcd60e51b815260040161051790611b33565b6000600a82015460ff1660038111156107f2576107f26114e4565b1461083f5760405162461bcd60e51b815260206004820152601d60248201527f476f7665726e616e63653a20616c72656164792066696e616c697a65640000006044820152606401610517565b806006015442116108925760405162461bcd60e51b815260206004820152601c60248201527f476f7665726e616e63653a20766f74696e67206e6f7420656e646564000000006044820152606401610517565b6003603c81600184015460ff1660038111156108b0576108b06114e4565b036108bd57506005905060505b818360090154101561091a57600a8301805460ff1916600290811790915560405185917f34a42c4ce0a88d16ad098de6406057747139a2a3dd8dd8616ee7bbabcecb768e9161090c9190611b76565b60405180910390a250505050565b60008360080154846007015461093091906119e7565b9050600081856007015460646109469190611b89565b6109509190611ba0565b905082811061096d57600a8501805460ff1916600117905561097d565b600a8501805460ff191660021790555b600a85015460405187917f34a42c4ce0a88d16ad098de6406057747139a2a3dd8dd8616ee7bbabcecb768e916109b69160ff1690611b76565b60405180910390a2505050505050565b6109ce611391565b6109d860006113be565b565b600081815260066020908152604091829020805483518184028101840190945280845260609392830182828015610a3a57602002820191906000526020600020905b81546001600160a01b03168152600190910190602001808311610a1c575b50505050509050919050565b6001546040516370a0823160e01b81526001600160a01b03838116600483015260009283929116906370a0823190602401602060405180830381865afa158015610a94573d6000803e3d6000fd5b505050506040513d601f19601f82011682018060405250810190610ab89190611bc2565b9050610ac38161140e565b9392505050565b60008060008060006003600087815260200190815260200160002060405180610180016040529081600082015481526020016001820160009054906101000a900460ff166003811115610b1f57610b1f6114e4565b6003811115610b3057610b306114e4565b815260200160028201548152602001600382018054610b4e90611920565b80601f0160208091040260200160405190810160405280929190818152602001828054610b7a90611920565b8015610bc75780601f10610b9c57610100808354040283529160200191610bc7565b820191906000526020600020905b815481529060010190602001808311610baa57829003601f168201915b505050918352505060048201546001600160a01b03166020820152600582015460408201526006820154606082015260078201546080820152600882015460a0820152600982015460c0820152600a82015460e09091019060ff166003811115610c3357610c336114e4565b6003811115610c4457610c446114e4565b8152600a919091015460ff6101009182900416151560209092019190915260e082015190820151610120830151610140909301519199909850919650945092505050565b60408051610180810182526000808252602082018190529181018290526060808201526080810182905260a0810182905260c0810182905260e081018290526101008101829052610120810182905261014081018290526101608101919091526000828152600360208181526040928390208351610180810190945280548452600181015490929184019160ff90911690811115610d2857610d286114e4565b6003811115610d3957610d396114e4565b815260200160028201548152602001600382018054610d5790611920565b80601f0160208091040260200160405190810160405280929190818152602001828054610d8390611920565b8015610dd05780601f10610da557610100808354040283529160200191610dd0565b820191906000526020600020905b815481529060010190602001808311610db357829003601f168201915b505050918352505060048201546001600160a01b03166020820152600582015460408201526006820154606082015260078201546080820152600882015460a0820152600982015460c0820152600a82015460e09091019060ff166003811115610e3c57610e3c6114e4565b6003811115610e4d57610e4d6114e4565b8152600a9190910154610100900460ff16151560209091015292915050565b60008281526003602052604081208054909103610e9b5760405162461bcd60e51b815260040161051790611b33565b6000600a82015460ff166003811115610eb657610eb66114e4565b14610efc5760405162461bcd60e51b8152602060048201526016602482015275476f7665726e616e63653a206e6f742061637469766560501b6044820152606401610517565b8060060154421115610f505760405162461bcd60e51b815260206004820152601860248201527f476f7665726e616e63653a20766f74696e6720656e64656400000000000000006044820152606401610517565b600083815260046020908152604080832033845290915290205460ff1615610fba5760405162461bcd60e51b815260206004820152601960248201527f476f7665726e616e63653a20616c726561647920766f746564000000000000006044820152606401610517565b6001546040516370a0823160e01b81523360048201526000916001600160a01b0316906370a0823190602401602060405180830381865afa158015611003573d6000803e3d6000fd5b505050506040513d601f19601f820116820180604052508101906110279190611bc2565b9050670de0b6b3a76400008110156110815760405162461bcd60e51b815260206004820152601d60248201527f476f7665726e616e63653a20696e73756666696369656e7420494e56580000006044820152606401610517565b600061108c8261140e565b9050600081116110de5760405162461bcd60e51b815260206004820152601d60248201527f476f7665726e616e63653a207a65726f20766f74696e6720706f7765720000006044820152606401610517565b600085815260046020908152604080832033808552908352818420805460ff1990811660019081179092558a865260058552838620838752855283862080548b158015919093161790558a8652600685529285208054918201815585529290932090910180546001600160a01b031916909217909155611177578083600701600082825461116c91906119e7565b909155506111919050565b8083600801600082825461118b91906119e7565b90915550505b6009830180549060006111a3836119b2565b909155505060408051851515815260208101839052339187917f7c2de587c00d75474a0c6c6fa96fd3b45dc974cd4e8a75f712bb84c950dce1b5910160405180910390a35050505050565b60008281526004602090815260408083206001600160a01b038516845290915290205460ff165b92915050565b611223611391565b6001600160a01b03811661124d57604051631e4fbdf760e01b815260006004820152602401610517565b611256816113be565b50565b3360009081526007602052604090205460ff166112885760405162461bcd60e51b81526004016105179061195a565b60008181526003602052604090206001600a82015460ff1660038111156112b1576112b16114e4565b146112f75760405162461bcd60e51b815260206004820152601660248201527511dbdd995c9b985b98d94e881b9bdd081c185cdcd95960521b6044820152606401610517565b600a810154610100900460ff16156113515760405162461bcd60e51b815260206004820152601c60248201527f476f7665726e616e63653a20616c7265616479206578656375746564000000006044820152606401610517565b600a8101805461ffff191661010317905560405182907f712ae1383f79ac853f8d882153778e0260ef8f03b504e2866e0593e04d2b291f90600090a25050565b6000546001600160a01b031633146109d85760405163118cdaa760e01b8152336004820152602401610517565b600080546001600160a01b038381166001600160a01b0319831681178455604051919092169283917f8be0079c531659141344cd1fd0a4f28419497f9722a3daafe3b4186f6b6457e09190a35050565b600080600160009054906101000a90046001600160a01b03166001600160a01b03166318160ddd6040518163ffffffff1660e01b8152600401602060405180830381865afa158015611464573d6000803e3d6000fd5b505050506040513d601f19601f820116820180604052508101906114889190611bc2565b905080600003611499575090919050565b600060646114a8601484611b89565b6114b29190611ba0565b90508084106114c157806114c3565b835b949350505050565b6000602082840312156114dd57600080fd5b5035919050565b634e487b7160e01b600052602160045260246000fd5b6004811061125657634e487b7160e01b600052602160045260246000fd5b611521816114fa565b9052565b60005b83811015611540578181015183820152602001611528565b50506000910152565b60008151808452611561816020860160208601611525565b601f01601f19169290920160200192915050565b60006101808e83526115868e6114fa565b8d60208401528c60408401528060608401526115a48184018d611549565b91505060018060a01b038a1660808301528860a08301528760c08301528660e083015285610100830152846101208301526115de846114fa565b836101408301528215156101608301529d9c50505050505050505050505050565b634e487b7160e01b600052604160045260246000fd5b600082601f83011261162657600080fd5b813567ffffffffffffffff80821115611641576116416115ff565b604051601f8301601f19908116603f01168101908282118183101715611669576116696115ff565b8160405283815286602085880101111561168257600080fd5b836020870160208301376000602085830101528094505050505092915050565b6000806000606084860312156116b757600080fd5b8335600481106116c657600080fd5b9250602084013567ffffffffffffffff808211156116e357600080fd5b6116ef87838801611615565b9350604086013591508082111561170557600080fd5b5061171286828701611615565b9150509250925092565b80356001600160a01b038116811461173357600080fd5b919050565b8035801515811461173357600080fd5b6000806040838503121561175b57600080fd5b6117648361171c565b915061177260208401611738565b90509250929050565b6000806040838503121561178e57600080fd5b823591506117726020840161171c565b6020808252825182820181905260009190848201906040850190845b818110156117df5783516001600160a01b0316835292840192918401916001016117ba565b50909695505050505050565b6000602082840312156117fd57600080fd5b610ac38261171c565b848152602081018490526040810183905260808101611824836114fa565b82606083015295945050505050565b6020815281516020820152600060208301516118526040840182611518565b506040830151606083015260608301516101808060808501526118796101a0850183611549565b9150608085015161189560a08601826001600160a01b03169052565b5060a085015160c085015260c085015160e085015260e08501516101008181870152808701519150506101208181870152808701519150506101408181870152808701519150506101606118eb81870183611518565b90950151151593019290925250919050565b6000806040838503121561191057600080fd5b8235915061177260208401611738565b600181811c9082168061193457607f821691505b60208210810361195457634e487b7160e01b600052602260045260246000fd5b50919050565b60208082526022908201527f476f7665726e616e63653a206e6f7420612070726f706f73616c20637265617460408201526137b960f11b606082015260800190565b634e487b7160e01b600052601160045260246000fd5b6000600182016119c4576119c461199c565b5060010190565b600082516119dd818460208701611525565b9190910192915050565b808201808211156112155761121561199c565b601f821115611a4457600081815260208120601f850160051c81016020861015611a215750805b601f850160051c820191505b81811015611a4057828155600101611a2d565b5050505b505050565b815167ffffffffffffffff811115611a6357611a636115ff565b611a7781611a718454611920565b846119fa565b602080601f831160018114611aac5760008415611a945750858301515b600019600386901b1c1916600185901b178555611a40565b600085815260208120601f198616915b82811015611adb57888601518255948401946001909101908401611abc565b5085821015611af95787850151600019600388901b60f8161c191681555b5050505050600190811b01905550565b60608101611b16856114fa565b93815260208101929092526001600160a01b031660409091015290565b60208082526023908201527f476f7665726e616e63653a2070726f706f73616c20646f6573206e6f742065786040820152621a5cdd60ea1b606082015260800190565b60208101611b83836114fa565b91905290565b80820281158282048414176112155761121561199c565b600082611bbd57634e487b7160e01b600052601260045260246000fd5b500490565b600060208284031215611bd457600080fd5b505191905056fea2646970667358221220cda7492a1602460ad68f55f303487124e2d35b1205a74c1f74ce77d1d484139264736f6c63430008140033",
  "linkReferences": {},
  "deployedLinkReferences": {}
}