{
  "_format": "hh-sol-artifact-1",
  "contractName": "RewardDistributor",
  "sourceName": "contracts/RewardDistributor.sol",
  "abi": [
    {
      "inputs": [
        {
          "internalType": "address",
          "name": "_invxToken",
          "type": "address"
        },
        {
          "internalType": "address",
          "name": "_backendWallet",
          "type": "address"
        },
        {
          "internalType": "address",
          "name": "_initialOwner",
          "type": "address"
        }
      ],
      "stateMutability": "nonpayable",
      "type": "constructor"
    },
    {
      "inputs": [
        {
          "internalType": "address",
          "name": "owner",
          "type": "address"
        }
      ],
      "name": "OwnableInvalidOwner",
      "type": "error"
    },
    {
      "inputs": [
        {
          "internalType": "address",
          "name": "account",
          "type": "address"
        }
      ],
      "name": "OwnableUnauthorizedAccount",
      "type": "error"
    },
    {
      "anonymous": false,
      "inputs": [
        {
          "indexed": true,
          "internalType": "address",
          "name": "oldWallet",
          "type": "address"
        },
        {
          "indexed": true,
          "internalType": "address",
          "name": "newWallet",
          "type": "address"
        }
      ],
      "name": "BackendWalletUpdated",
      "type": "event"
    },
    {
      "anonymous": false,
      "inputs": [
        {
          "indexed": true,
          "internalType": "address",
          "name": "previousOwner",
          "type": "address"
        },
        {
          "indexed": true,
          "internalType": "address",
          "name": "newOwner",
          "type": "address"
        }
      ],
      "name": "OwnershipTransferred",
      "type": "event"
    },
    {
      "anonymous": false,
      "inputs": [
        {
          "indexed": false,
          "internalType": "enum RewardDistributor.RewardAction",
          "name": "action",
          "type": "uint8"
        },
        {
          "indexed": false,
          "internalType": "uint256",
          "name": "oldAmount",
          "type": "uint256"
        },
        {
          "indexed": false,
          "internalType": "uint256",
          "name": "newAmount",
          "type": "uint256"
        }
      ],
      "name": "RewardAmountUpdated",
      "type": "event"
    },
    {
      "anonymous": false,
      "inputs": [
        {
          "indexed": true,
          "internalType": "address",
          "name": "user",
          "type": "address"
        },
        {
          "indexed": false,
          "internalType": "enum RewardDistributor.RewardAction",
          "name": "action",
          "type": "uint8"
        },
        {
          "indexed": false,
          "internalType": "uint256",
          "name": "amount",
          "type": "uint256"
        },
        {
          "indexed": false,
          "internalType": "bytes32",
          "name": "actionId",
          "type": "bytes32"
        }
      ],
      "name": "Rewarded",
      "type": "event"
    },
    {
      "inputs": [],
      "name": "backendWallet",
      "outputs": [
        {
          "internalType": "address",
          "name": "",
          "type": "address"
        }
      ],
      "stateMutability": "view",
      "type": "function"
    },
    {
      "inputs": [
        {
          "internalType": "enum RewardDistributor.RewardAction",
          "name": "_action",
          "type": "uint8"
        }
      ],
      "name": "getRewardAmount",
      "outputs": [
        {
          "internalType": "uint256",
          "name": "",
          "type": "uint256"
        }
      ],
      "stateMutability": "view",
      "type": "function"
    },
    {
      "inputs": [
        {
          "internalType": "address",
          "name": "_user",
          "type": "address"
        }
      ],
      "name": "getUserTotalEarned",
      "outputs": [
        {
          "internalType": "uint256",
          "name": "",
          "type": "uint256"
        }
      ],
      "stateMutability": "view",
      "type": "function"
    },
    {
      "inputs": [
        {
          "internalType": "bytes32",
          "name": "_actionId",
          "type": "bytes32"
        }
      ],
      "name": "hasBeenRewarded",
      "outputs": [
        {
          "internalType": "bool",
          "name": "",
          "type": "bool"
        }
      ],
      "stateMutability": "view",
      "type": "function"
    },
    {
      "inputs": [],
      "name": "invxToken",
      "outputs": [
        {
          "internalType": "contract IINVXToken",
          "name": "",
          "type": "address"
        }
      ],
      "stateMutability": "view",
      "type": "function"
    },
    {
      "inputs": [],
      "name": "owner",
      "outputs": [
        {
          "internalType": "address",
          "name": "",
          "type": "address"
        }
      ],
      "stateMutability": "view",
      "type": "function"
    },
    {
      "inputs": [],
      "name": "renounceOwnership",
      "outputs": [],
      "stateMutability": "nonpayable",
      "type": "function"
    },
    {
      "inputs": [
        {
          "internalType": "enum RewardDistributor.RewardAction",
          "name": "",
          "type": "uint8"
        }
      ],
      "name": "rewardAmounts",
      "outputs": [
        {
          "internalType": "uint256",
          "name": "",
          "type": "uint256"
        }
      ],
      "stateMutability": "view",
      "type": "function"
    },
    {
      "inputs": [
        {
          "internalType": "address",
          "name": "_user",
          "type": "address"
        },
        {
          "internalType": "enum RewardDistributor.RewardAction",
          "name": "_action",
          "type": "uint8"
        },
        {
          "internalType": "bytes32",
          "name": "_actionId",
          "type": "bytes32"
        }
      ],
      "name": "rewardUser",
      "outputs": [],
      "stateMutability": "nonpayable",
      "type": "function"
    },
    {
      "inputs": [
        {
          "internalType": "bytes32",
          "name": "",
          "type": "bytes32"
        }
      ],
      "name": "rewardedActions",
      "outputs": [
        {
          "internalType": "bool",
          "name": "",
          "type": "bool"
        }
      ],
      "stateMutability": "view",
      "type": "function"
    },
    {
      "inputs": [
        {
          "internalType": "address",
          "name": "_newBackend",
          "type": "address"
        }
      ],
      "name": "setBackendWallet",
      "outputs": [],
      "stateMutability": "nonpayable",
      "type": "function"
    },
    {
      "inputs": [
        {
          "internalType": "enum RewardDistributor.RewardAction",
          "name": "_action",
          "type": "uint8"
        },
        {
          "internalType": "uint256",
          "name": "_amount",
          "type": "uint256"
        }
      ],
      "name": "setRewardAmount",
      "outputs": [],
      "stateMutability": "nonpayable",
      "type": "function"
    },
    {
      "inputs": [],
      "name": "totalDistributed",
      "outputs": [
        {
          "internalType": "uint256",
          "name": "",
          "type": "uint256"
        }
      ],
      "stateMutability": "view",
      "type": "function"
    },
    {
      "inputs": [
        {
          "internalType": "address",
          "name": "newOwner",
          "type": "address"
        }
      ],
      "name": "transferOwnership",
      "outputs": [],
      "stateMutability": "nonpayable",
      "type": "function"
    },
    {
      "inputs": [
        {
          "internalType": "address",
          "name": "",
          "type": "address"
        }
      ],
      "name": "userTotalEarned",
      "outputs": [
        {
          "internalType": "uint256",
          "name": "",
          "type": "uint256"
        }
      ],
      "stateMutability": "view",
      "type": "function"
    }
  ],
  "bytecode": "0x608060405234801561001057600080fd5b50604051610cbc380380610cbc83398101604081905261002f916102e0565b806001600160a01b03811661005f57604051631e4fbdf760e01b8152600060048201526024015b60405180910390fd5b61006881610274565b506001600160a01b0383166100bf5760405162461bcd60e51b815260206004820181905260248201527f5265776172644469737472696275746f723a20696e76616c696420746f6b656e6044820152606401610056565b6001600160a01b0382166101205760405162461bcd60e51b815260206004820152602260248201527f5265776172644469737472696275746f723a20696e76616c6964206261636b656044820152611b9960f21b6064820152608401610056565b50600180546001600160a01b039384166001600160a01b031991821617909155600280549290931691161790556003602052674563918244f400007f3617319a054d772f909f7c479a2cebe5066e836a939412e32403c99029b92eff819055678ac7230489e800007fa15bc60c955c405d20d9149c709e2460f1c2d9a497496a7f46004d1772c3054c557fc3a24b0501bd2c13a7e57f2db4369ec4c223447539fc0724a9d55ac4a06ebd4d8190556729a2241af62c00007fcbc4e5fb02c3d1de23a9f1e014b4d2ee5aeaea9505df5e855c9210bf472495af819055671bc16d674ec800007f83ec6a1f0257b830b5e016457c9cf1435391bf56cc98f369a58a54fe93772465557f405aad32e1adbac89bb7f176e338b8fc6e994ca210c9bb7bdca249b4659422505560066000527fc69056f16cbaa3c616b828e333ab7d3a32310765507f8f58359e99ebb7a885f355610323565b600080546001600160a01b038381166001600160a01b0319831681178455604051919092169283917f8be0079c531659141344cd1fd0a4f28419497f9722a3daafe3b4186f6b6457e09190a35050565b80516001600160a01b03811681146102db57600080fd5b919050565b6000806000606084860312156102f557600080fd5b6102fe846102c4565b925061030c602085016102c4565b915061031a604085016102c4565b90509250925092565b61098a806103326000396000f3fe608060405234801561001057600080fd5b50600436106100f55760003560e01c8063715018a611610097578063a680baaf11610066578063a680baaf1461023b578063cfbcab451461024e578063efca2eed14610271578063f2fde38b1461027a57600080fd5b8063715018a6146101ef5780637dd179d1146101f75780638da5cb5b1461020a5780638e6dbe881461021b57600080fd5b80631195fd5e116100d35780631195fd5e1461017557806312146378146101885780632b635fe3146101b357806369e0e758146101c657600080fd5b806301dc8e52146100fa578063079b94ad146101325780630edfe7ec14610160575b600080fd5b61011d6101083660046107ef565b60009081526004602052604090205460ff1690565b60405190151581526020015b60405180910390f35b61015261014036600461081c565b60036020526000908152604090205481565b604051908152602001610129565b61017361016e366004610855565b61028d565b005b610173610183366004610870565b61034d565b60015461019b906001600160a01b031681565b6040516001600160a01b039091168152602001610129565b6101736101c13660046108ac565b610625565b6101526101d4366004610855565b6001600160a01b031660009081526006602052604090205490565b6101736106e1565b61015261020536600461081c565b6106f5565b6000546001600160a01b031661019b565b610152610229366004610855565b60066020526000908152604090205481565b60025461019b906001600160a01b031681565b61011d61025c3660046107ef565b60046020526000908152604090205460ff1681565b61015260055481565b610173610288366004610855565b610734565b610295610772565b6001600160a01b0381166102fb5760405162461bcd60e51b815260206004820152602260248201527f5265776172644469737472696275746f723a20696e76616c6964206164647265604482015261737360f01b60648201526084015b60405180910390fd5b600280546001600160a01b038381166001600160a01b0319831681179093556040519116919082907f716b3a2dfa2f49860523af3a731e959ff542da2a80f52dfd893cdb2b93d6304690600090a35050565b6002546001600160a01b031633146103b85760405162461bcd60e51b815260206004820152602860248201527f5265776172644469737472696275746f723a2063616c6c6572206973206e6f7460448201526708189858dad95b9960c21b60648201526084016102f2565b6001600160a01b03831661040e5760405162461bcd60e51b815260206004820152601f60248201527f5265776172644469737472696275746f723a20696e76616c696420757365720060448201526064016102f2565b60008181526004602052604090205460ff16156104795760405162461bcd60e51b815260206004820152602360248201527f5265776172644469737472696275746f723a20616c726561647920726577617260448201526219195960ea1b60648201526084016102f2565b600060036000846006811115610491576104916108d6565b60068111156104a2576104a26108d6565b8152602001908152602001600020549050600081116105175760405162461bcd60e51b815260206004820152602b60248201527f5265776172644469737472696275746f723a206e6f207265776172642073657460448201526a103337b91030b1ba34b7b760a91b60648201526084016102f2565b6000828152600460205260408120805460ff19166001179055600580548392906105429084906108ec565b90915550506001600160a01b0384166000908152600660205260408120805483929061056f9084906108ec565b90915550506001546040516340c10f1960e01b81526001600160a01b03868116600483015260248201849052909116906340c10f1990604401600060405180830381600087803b1580156105c257600080fd5b505af11580156105d6573d6000803e3d6000fd5b50505050836001600160a01b03167f5256d8a286f173c8c24be7f7f4d004df5e0e6c3f11688e3e786a05ecb79f0e6584838560405161061793929190610935565b60405180910390a250505050565b61062d610772565b600060036000846006811115610645576106456108d6565b6006811115610656576106566108d6565b8152602001908152602001600020549050816003600085600681111561067e5761067e6108d6565b600681111561068f5761068f6108d6565b8152602001908152602001600020819055507fb8f29bda9c35d1d8b422d9d235b78c1638e981c4555ba4acb336c4d3dd7693938382846040516106d493929190610935565b60405180910390a1505050565b6106e9610772565b6106f3600061079f565b565b60006003600083600681111561070d5761070d6108d6565b600681111561071e5761071e6108d6565b8152602001908152602001600020549050919050565b61073c610772565b6001600160a01b03811661076657604051631e4fbdf760e01b8152600060048201526024016102f2565b61076f8161079f565b50565b6000546001600160a01b031633146106f35760405163118cdaa760e01b81523360048201526024016102f2565b600080546001600160a01b038381166001600160a01b0319831681178455604051919092169283917f8be0079c531659141344cd1fd0a4f28419497f9722a3daafe3b4186f6b6457e09190a35050565b60006020828403121561080157600080fd5b5035919050565b80356007811061081757600080fd5b919050565b60006020828403121561082e57600080fd5b61083782610808565b9392505050565b80356001600160a01b038116811461081757600080fd5b60006020828403121561086757600080fd5b6108378261083e565b60008060006060848603121561088557600080fd5b61088e8461083e565b925061089c60208501610808565b9150604084013590509250925092565b600080604083850312156108bf57600080fd5b6108c883610808565b946020939093013593505050565b634e487b7160e01b600052602160045260246000fd5b8082018082111561090d57634e487b7160e01b600052601160045260246000fd5b92915050565b6007811061093157634e487b7160e01b600052602160045260246000fd5b9052565b606081016109438286610913565b60208201939093526040015291905056fea2646970667358221220520c6d00e2a0ad05e6b42f0cadf6a4ddd1e997821c5b3327d497f2d4a15d81e164736f6c63430008140033",
  "linkReferences": {},
  "deployedLinkReferences": {}
}